:100000000C945D000C9485000C9485000C94850084
:100010000C9485000C9485000C9485000C9485004C
:100020000C9485000C9485000C9485000C9485003C
:100030000C9485000C9485000C9485000C9485002C
:100040000C94CA040C9485000C943A050C94140585
:100050000C9485000C9485000C9485000C9485000C
:100060000C9485000C9485000000000024002700FB
:100070002A0000000000250028002B0004040404CE
:100080000404040402020202020203030303030342
:10009000010204081020408001020408102001021F
:1000A00004081020000000080002010000030407FB
:1000B00000000000000000006C0511241FBECFEFFF
:1000C000D8E0DEBFCDBF11E0A0E0B1E0ECEAFEE099
:1000D00002C005900D92AA32B107D9F721E0AAE239
:1000E000B1E001C01D92A03FB207E1F710E0CDE5FD
:1000F000D0E004C02197FE010E944907CC35D1070A
:10010000C9F70E94B7050C9454070C94000090E0C6
:10011000FC01EC55FF4F3491FC01E057FF4F249157
:10012000FC01E458FF4FE491EE2309F43BC0332374
:1001300039F1333091F038F43130A9F0323001F533
:1001400084B58F7D12C0373091F03830A1F0343053
:10015000B9F4809180008F7D03C0809180008F77FB
:10016000809380000DC084B58F7784BD09C08091D5
:10017000B0008F7703C08091B0008F7D8093B00076
:10018000F0E0EE0FFF1FEE58FF4FA591B4918FB72F
:10019000F894EC91611103C020952E2301C02E2B01
:1001A0002C938FBF0895CF93DF9390E0FC01E0572D
:1001B000FF4F2491FC01E458FF4F8491882361F1A3
:1001C00090E0880F991FFC01E859FF4FC591D49129
:1001D000FC01EE58FF4FA591B491611109C09FB782
:1001E000F8948881209582238883EC912E230BC07C
:1001F000623061F49FB7F8943881822F8095832311
:100200008883EC912E2B2C939FBF06C08FB7F89458
:10021000E8812E2B28838FBFDF91CF910895CF9354
:10022000DF93EC0161E089E00E94D300209711F494
:1002300060E004C0CF3FD10531F461E089E0DF9197
:10024000CF910C948700EDEAF0E0E491E330F9F00F
:1002500048F4E130B9F0E230A1F584B5806284BDA4
:10026000C8BD34C0E730E9F0E83019F1E43049F5B1
:1002700080918000806280938000D0938B00C09337
:100280008A0024C084B5806884BDC7BD1FC080912A
:100290008000806880938000D0938900C09388009C
:1002A00015C08091B00080688093B000C093B30007
:1002B0000DC08091B00080628093B000C093B40004
:1002C00005C0C038D1050CF0B8CFB2CFDF91CF91C7
:1002D00008958E3008F08E508770806480937C0083
:1002E00080917A00806480937A0080917A0086FD04
:1002F000FCCF809178002091790090E0922B0895B6
:100300003FB7F8948091370190913801A09139015D
:10031000B0913A0126B5A89B05C02F3F19F0019670
:10032000A11DB11D3FBFBA2FA92F982F8827820F7B
:10033000911DA11DB11DBC01CD0142E0660F771FCB
:10034000881F991F4A95D1F70895CF92DF92EF92B7
:10035000FF920F931F93CF93DF936C017A018B0170
:10036000C0E0D0E0CE15DF0589F0D8016D918D0198
:10037000D601ED91FC910190F081E02DC601099527
:10038000892B11F47E0102C02196ECCFC701DF91C9
:10039000CF911F910F91FF90EF90DF90CF90089534
:1003A000FC01538D448D252F30E0842F90E0821B7B
:1003B000930B541710F0CF96089501970895FC0100
:1003C000918D828D981761F0828DDF01A80FB11D8C
:1003D0005D968C91928D9F5F9F73928F90E00895B0
:1003E0008FEF9FEF0895FC01918D828D981731F06A
:1003F000828DE80FF11D858D90E008958FEF9FEFBE
:100400000895FC01918D228D892F90E0805C9F4F93
:10041000821B91098F73992708958BE391E00E94C5
:10042000010221E0892B09F420E0822F0895FC01CC
:10043000848DDF01A80FB11DA35ABF4F2C91848D6D
:1004400090E001968F739927848FA689B7892C93A2
:10045000A089B1898C9180648C93938D848D98133D
:1004600006C00288F389E02D80818F7D8083089506
:10047000EF92FF920F931F93CF93DF93EC0181E0F4
:10048000888F9B8D8C8D981305C0E889F9898081B0
:1004900085FD24C0F62E0B8D10E00F5F1F4F0F73EC
:1004A0001127E02E8C8DE8120CC00FB607FCFACF96
:1004B000E889F989808185FFF5CFCE010E94170276
:1004C000F1CF8B8DFE01E80FF11DE35AFF4FF08253
:1004D0000B8FEA89FB898081806207C0EE89FF89E2
:1004E0006083E889F98980818064808381E090E07D
:1004F000DF91CF911F910F91FF90EF900895CF93CF
:10050000DF93EC01888D8823C9F0EA89FB8980811B
:1005100085FD05C0A889B9898C9186FD0FC00FB6ED
:1005200007FCF5CF808185FFF2CFA889B9898C912E
:1005300085FFEDCFCE010E941702E7CFDF91CF916B
:10054000089580E090E0892B29F00E940D0281112E
:100550000C9400000895CF93DF93EC0160E08E814E
:100560000E94870061E08E810E94870060E08E819A
:100570000E9487008BE891E00197F1F7DF91CF911E
:100580000895CF92DF92EF92FF920F931F93CF9334
:10059000DF937C016C0187E0C80ED11CC0E0D0E085
:1005A000062F10E0B8010C2E02C0759567950A94CD
:1005B000E2F76170F60181916F010E948700219638
:1005C000C430D10579F7C701DF91CF911F910F9109
:1005D000FF90EF90DF90CF900C94AB02CF92DF9220
:1005E000EF92FF920F931F93CF93DF93EC01F62EC0
:1005F000642F8C810E9487008D818F3F19F060E00D
:100600000E9487008F850F2D10E084FF25C06E01AA
:1006100087E0C80ED11CE12CF12CB8010E2C02C0D1
:10062000759567950A94E2F76170F60181916F0103
:100630000E948700FFEFEF1AFF0A88E0E816F10436
:1006400061F7CE01DF91CF911F910F91FF90EF9055
:10065000DF90CF900C94AB02B80184E0759567955C
:100660008A95E1F7CE010E94C1026F2DCE01DF9184
:10067000CF911F910F91FF90EF90DF90CF900C944E
:10068000C10241E00E94EE0281E090E0089540E066
:100690000C94EE02EF92FF920F931F93CF93DF9390
:1006A000EC01623018F08F8588608F876B8B1C8A15
:1006B00080E48D8B80E18E8B80E58F8B61E08C8177
:1006C0000E94D3008D818F3F19F061E00E94D3001A
:1006D00061E08E810E94D3007E0187E0E80EF11C6C
:1006E00000E010E08F8584FD03C084E090E002C04C
:1006F00088E090E0081719074CF461E0F701819158
:100700007F010E94D3000F5F1F4FECCF8BE39DE072
:100710000197F1F760E08C810E94870060E08E8194
:100720000E9487008D818F3F19F060E00E94870052
:100730006F8564FD1DC063E0CE010E94C1020BE421
:1007400016E4C8010197F1F763E0CE010E94C102EF
:10075000C8010197F1F763E0CE010E94C10283E571
:1007600092E00197F1F762E0CE010E94C10216C04B
:100770006062CE010E9447038BE496E40197F1F793
:100780006F856062CE010E94470383E592E0019786
:10079000F1F76F856062CE010E9447036F8560624A
:1007A000CE010E94470384E0888B6CE0CE010E945A
:1007B000470361E0CE010E9447038BE39FE101976D
:1007C000F1F782E0898B66E0CE01DF91CF911F9136
:1007D0000F91FF90EF900C944703643008F063E0B2
:1007E0009091EB01691710F06FEF690FE62FF0E0C1
:1007F000E852FE4F9489682F690F606888ED91E098
:100800000C944703089580E090E0089580913001B2
:100810009091310161E0019711F487E001C080E01F
:100820000C94ED030E944F076115710579F0FB01EF
:1008300001900020E9F73197AF01461B570BDC010F
:10084000ED91FC910280F381E02D099480E090E02D
:1008500008954F925F926F927F92EF92FF920F9363
:100860001F93CF93DF93CDB7DEB7A1970FB6F89460
:10087000DEBF0FBECDBF7C01FA01CB0119A2223031
:1008800008F42AE08E010F5D1F4F422E512C612C7F
:10089000712CBF01A30192010E941307F901CA0143
:1008A000015011096A3014F4605D01C0695CD8011F
:1008B0006C93232B242B252B61F7B801C7010E94D1
:1008C0001404A1960FB6F894DEBF0FBECDBFDF9122
:1008D000CF911F910F91FF90EF907F906F905F905D
:1008E0004F900895CF92DF92EF92FF920F931F9354
:1008F000CF93DF93EC016A017B01E881F9810190DC
:10090000F081E02D6DE209958C0144275527BA014D
:100910004C195D096E097F092AE0CE010E94290465
:10092000800F911FDF91CF911F910F91FF90EF905A
:10093000DF90CF90089561E081E00E94ED03209167
:100940002E0130912F0144E6429FC001439F900D3C
:1009500011246FEF70E00E94FF06CB0170932B0112
:1009600060932A01AB01770F660B770B97FF05C0E9
:1009700088ED91E00E94720405C02AE088ED91E0C4
:100980000E9429046EE171E088ED91E00E94140458
:100990000C9406041F920F920FB60F9211242F93FE
:1009A0003F938F939F93AF93BF9380913301909127
:1009B0003401A0913501B09136013091320123E02C
:1009C000230F2D3720F40196A11DB11D05C026E887
:1009D000230F0296A11DB11D209332018093330194
:1009E00090933401A0933501B09336018091370183
:1009F00090913801A0913901B0913A010196A11D61
:100A0000B11D8093370190933801A0933901B093C1
:100A10003A01BF91AF919F918F913F912F910F908C
:100A20000FBE0F901F9018951F920F920FB60F9246
:100A300011242F933F934F935F936F937F938F93E3
:100A40009F93AF93BF93EF93FF938BE391E00E944B
:100A50001702FF91EF91BF91AF919F918F917F917D
:100A60006F915F914F913F912F910F900FBE0F901B
:100A70001F9018951F920F920FB60F9211242F936B
:100A80008F939F93EF93FF93E0914B01F0914C0173
:100A90008081E0915101F091520182FD12C090815C
:100AA000809154018F5F8F7320915501821751F00F
:100AB000E0915401F0E0E55CFE4F958F8093540186
:100AC00001C08081FF91EF919F918F912F910F90A5
:100AD0000FBE0F901F901895EBE3F1E01382128286
:100AE00088EE93E0A0E0B0E084839583A683B7838B
:100AF00084E091E09183808385EC90E09587848702
:100B000084EC90E09787868780EC90E0918B808BD7
:100B100081EC90E0938B828B82EC90E0958B848BC0
:100B200086EC90E0978B868B118E128E138E148E2E
:100B3000E8EDF1E01382128286E191E091838083F7
:100B40008CE084838FEF85838BE0868385E08783C9
:100B500084E0808783E0818782E082871386148621
:100B600015861686178661E0CF010C944A037894A7
:100B700084B5826084BD84B5816084BD85B58260A2
:100B800085BD85B5816085BD80916E008160809353
:100B90006E001092810080918100826080938100BC
:100BA00080918100816080938100809180008160CC
:100BB000809380008091B10084608093B100809127
:100BC000B00081608093B00080917A00846080934F
:100BD0007A0080917A00826080937A0080917A0016
:100BE000816080937A0080917A00806880937A0097
:100BF0001092C10061E080E10E94D30061E081E1D8
:100C00000E94D30061E080E10E94870060E081E102
:100C10000E94870010923101109230018AEA90E020
:100C200090932F0180932E0182E390E090932D0109
:100C300080932C0161E089E00E94D30060E082E1B2
:100C40000E94D300E0914B01F0914C0182E080833F
:100C5000E0914701F09148011082E0914901F09143
:100C60004A0180E1808310925301E0914F01F0919D
:100C7000500186E08083E0914D01F0914E0180812A
:100C800080618083E0914D01F0914E018081886008
:100C90008083E0914D01F0914E01808180688083D6
:100CA000E0914D01F0914E0180818F7D808362E063
:100CB00088ED91E00E944A0361E088ED91E00E9496
:100CC00047038BE39FE10197F1F760E081E00E9429
:100CD000ED0363E271E088ED91E00E9414040E944C
:100CE0009B040E9406048EE00E946901209130015D
:100CF0003091310121153105F9F4813223E0920759
:100D00004CF080912E0190912F01181619069CF538
:100D100001970BC08C32914074F580912E01909117
:100D20002F018F3F91053CF5019690932F01809301
:100D30002E010E940F011FC021303105E1F48132E4
:100D400023E092074CF080912C0190912D01181610
:100D500019068CF401970BC08C32914064F4809199
:100D60002C0190912D01843691052CF401969093DD
:100D70002D0180932C0182E10E946901AC01990F41
:100D8000660B770B77FF05C08BE391E00E9472043E
:100D900005C02AE08BE391E00E94290467E271E03C
:100DA0008BE391E00E9414040E949B040E94800146
:100DB0004B015C0184E1C82ED12CE12CF12C0E9466
:100DC0008001DC01CB0188199909AA09BB09883E79
:100DD0009340A105B10558F081E0C81AD108E10897
:100DE000F10828EE820E23E0921EA11CB11CC11452
:100DF000D104E104F10419F70E94A10274CF97FB1A
:100E0000072E16F4009407D077FD09D00E9435070D
:100E100007FC05D03EF4909581959F4F08957095FD
:100E200061957F4F0895A1E21A2EAA1BBB1BFD01FD
:100E30000DC0AA1FBB1FEE1FFF1FA217B307E407B9
:100E4000F50720F0A21BB30BE40BF50B661F771F11
:100E5000881F991F1A9469F76095709580959095F1
:100E60009B01AC01BD01CF010895AA1BBB1B51E141
:100E700007C0AA1FBB1FA617B70710F0A61BB70B0A
:100E8000881F991F5A95A9F780959095BC01CD01AF
:100E90000895EE0FFF1F0590F491E02D099481E075
:0C0EA00090E0F8940C945407F894FFCFF5
:100EAC00000000003802A501D0017F020102DF0121
:100EBC00F301000000004103A501030402042520F6
:0A0ECC0020200050574D000D0A00D1
:00000001FF
